:100000000C9462000C948A000C948A000C948A0070
:100010000C948A000C948A000C948A000C948A0038
:100020000C948A000C948A000C948A000C948A0028
:100030000C948A000C948A000C948A000C948A0018
:100040000C94A2050C948A000C948A000C948A00EB
:100050000C948A000C948A000C948A000C948A00F8
:100060000C948A000C948A000000000024002700F1
:100070002A0000000000250028002B0000000000DE
:1000800023002600290004040404040404040202DA
:100090000202020203030303030301020408102007
:1000A0004080010204081020010204081020000012
:1000B0000008000201000003040700000000000027
:1000C0000000700611241FBECFEFD8E0DEBFCDBF09
:1000D00011E0A0E0B1E0E2EFFDE002C005900D927A
:1000E000A23AB107D9F722E0A2EAB1E001C01D921D
:1000F000A733B207E1F710E0C2E6D0E004C02197D1
:10010000FE010E94EC06C136D107C9F70E94EC053A
:100110000C94F7060C94000096E0899FD0011124FE
:10012000A055BE4F90967C936E935F9791E0919609
:100130009C93919790911C02E0911D02F0911E02F8
:10014000992339F0309751F0811108C08091CC018A
:1001500004C0309719F05C968C9109940895CF9261
:10016000DF92EF92FF920F931F93CF93DF936C0177
:100170007A018B01C0E0D0E0CE15DF0589F0D8010F
:100180006D918D01D601ED91FC910190F081E02DF2
:10019000C6010995892B11F47E0102C02196ECCF8E
:1001A000C701DF91CF911F910F91FF90EF90DF90EA
:1001B000CF900895833081F028F4813099F0823017
:1001C000A1F008958730A9F08830B9F08430D1F4D7
:1001D000809180008F7D03C0809180008F77809315
:1001E0008000089584B58F7702C084B58F7D84BD6B
:1001F00008958091B0008F7703C08091B0008F7D0B
:100200008093B0000895CF93DF93282F30E0F90159
:10021000E255FF4F8491F901E656FF4FD491F90161
:10022000EA57FF4FC491CC2391F081110E94DA006C
:10023000EC2FF0E0EE0FFF1FE458FF4FA591B491B3
:10024000EC91ED2381E090E021F480E002C080E0B9
:1002500090E0DF91CF910895862F0C9403011F93B6
:10026000CF93DF93282F30E0F901E255FF4F8491BF
:10027000F901E656FF4FD491F901EA57FF4FC491B7
:10028000CC23C9F0162F81110E94DA00EC2FF0E088
:10029000EE0FFF1FEE58FF4FA591B4918FB7F89462
:1002A000111105C09C91ED2FE095E92302C0EC915E
:1002B000ED2BEC938FBFDF91CF911F910895862F87
:1002C000642F0C942F01CF93DF9390E0FC01E6564E
:1002D000FF4F2491FC01EA57FF4F8491882361F17D
:1002E00090E0880F991FFC01E859FF4FC591D49108
:1002F000FC01EE58FF4FA591B491611109C09FB761
:10030000F8948881209582238883EC912E230BC05A
:10031000623061F49FB7F8943881822F80958323EF
:100320008883EC912E2B2C939FBF06C08FB7F89437
:10033000E8812E2B28838FBFDF91CF910895862FE0
:10034000642F0C9463013FB7F8948091AB019091B6
:10035000AC01A091AD01B091AE0126B5A89B05C03E
:100360002F3F19F00196A11DB11D3FBFBA2FA92F34
:10037000982F8827820F911DA11DB11DBC01CD01B1
:1003800042E0660F771F881F991F4A95D1F708959D
:100390008F929F92AF92BF92CF92DF92EF92FF9295
:1003A0006B017C010E94A3014B015C01C114D104CB
:1003B000E104F104F1F00E94A301DC01CB018819F2
:1003C0009909AA09BB09883E9340A105B10570F3BC
:1003D00021E0C21AD108E108F10888EE880E83E016
:1003E000981EA11CB11CC114D104E104F10419F739
:1003F000DDCFFF90EF90DF90CF90BF90AF909F90B8
:100400008F9008952FB7F8946091A7017091A8017B
:100410008091A9019091AA012FBF08950F931F9376
:10042000CF93DF93C82FD62F86E0C89FF001112409
:10043000E055FE4F11A2878D90A181309105F1F01A
:100440001CF4892B49F043C082309105A9F1039730
:10045000F1F560E070E034C06623C9F161E070E05E
:100460008C2F0E948C000E940202609308027093FD
:10047000090280930A0290930B0229C00E94020293
:10048000009108021091090220910A0230910B029A
:10049000AB01BC01401B510B620B730B80911A0224
:1004A00090911B02A0E0B0E084179507A607B7075C
:1004B00018F462E070E004C0D11109C063E070E09C
:1004C0008C2FDF91CF911F910F910C948C00DF91B5
:1004D000CF911F910F9108956F927F928F929F926B
:1004E000AF92BF92CF92DF92EF92FF920F931F9342
:1004F000CF93DF9381E080931C020E94020200915F
:100500000C0210910D0220910E0230910F02AB01EE
:10051000BC01401B510B620B730B80911802909130
:100520001902A0E0B0E084179507A607B70708F006
:100530000BC1C0E080911602C81760F4E09112026E
:10054000F0911302EC0FF11D62E080810E946301C3
:10055000CF5FF0CF712C812C912C5401839480912A
:100560001702781608F05FC0072D10E0E091140222
:10057000F0911502E00FF11F61E080810E9463019C
:10058000E0911402F0911502E00FF11F60E080810C
:100590000E942F01D501C401072C04C0880F991FA8
:1005A000AA1FBB1F0A94D2F76C017C01E094F0945F
:1005B000612C809116026816F8F4C62DD0E0E09107
:1005C0001202F0911302EC0FFD1F80810E940301C3
:1005D0002496CC0FDD1FC055DE4F892B29F488816E
:1005E00099818C299D2904C0888199818E219F2120
:1005F000998388836394DDCFE0911402F091150212
:10060000E00FF11F61E080810E942F0180911402B0
:1006100090911502FC01E00FF11F60E080810E94C3
:10062000630173949CCFECECF1E08FEF9FEF23819B
:100630003481232B21F41082928381831582369694
:1006400022E0E830F20799F710E096E0F92E809169
:100650001602181708F052C000E0C12FD0E0CC0FEE
:10066000DD1FC854DE4F20911702021708F044C066
:1006700068817981002E02C0769567950A94E2F729
:1006800061707727129F90011124200F311DE09196
:100690001002F0911102E20FF31F4081E0EBF1E054
:1006A00080E0A58DB68DA217B30711F461701AC052
:1006B0008F5F36968A30A9F7672BE1F0ECECF1E01A
:1006C00080E090E05081511110C0F89EF001F99E39
:1006D000F00D1124E055FE4F448F368F258F10A268
:1006E000178E61E00E940E0205C0019636968A3090
:1006F000910541F70F5FB7CF1F5FA9CF80E090E072
:10070000C0E0FC01E055FE4F21A12111C1E0069699
:100710008C339105B1F70E94020260930C02709332
:100720000D0280930E0290930F02CC2369F080910A
:10073000D101882349F08091CF019091D001019798
:1007400019F48091CC0103C010921C0280E0DF916B
:10075000CF911F910F91FF90EF90DF90CF90BF90BE
:10076000AF909F908F907F906F900895CF93DF937D
:10077000EC0160E08E810E942F0161E08E810E9479
:100780002F0160E08E810E942F018BE891E001979C
:10079000F1F7DF91CF910895CF92DF92EF92FF9220
:1007A0000F931F93CF93DF937C016C0187E0C80EFA
:1007B000D11CC0E0D0E0062F10E0B8010C2E02C022
:1007C000759567950A94E2F76170F60181916F0162
:1007D0000E942F012196C430D10579F7C701DF911E
:1007E000CF911F910F91FF90EF90DF90CF900C94DD
:1007F000B603CF92DF92EF92FF920F931F93CF93A6
:10080000DF93EC01F62E642F8C810E942F018D81E5
:100810008F3F19F060E00E942F018F850F2D10E0AF
:1008200084FF25C06E0187E0C80ED11CE12CF12C9D
:10083000B8010E2C02C0759567950A94E2F76170B5
:10084000F60181916F010E942F01FFEFEF1AFF0A5D
:1008500088E0E816F10461F7CE01DF91CF911F9196
:100860000F91FF90EF90DF90CF900C94B603B801FA
:1008700084E0759567958A95E1F7CE010E94CC03D7
:100880006F2DCE01DF91CF911F910F91FF90EF90CF
:10089000DF90CF900C94CC0341E00E94F90381E0FB
:1008A00090E0089540E00C94F903EF92FF920F93CB
:1008B0001F93CF93DF93EC01423018F08F8588604F
:1008C0008F874B8B1C8A80E48D8B6E8B70E0605C15
:1008D0007F4F6F8B61E08C810E9463018D818F3F20
:1008E00019F061E00E94630161E08E810E94630162
:1008F0007E0187E0E80EF11C00E010E08F8584FDAA
:1009000003C084E090E002C088E090E00817190777
:100910004CF461E0F70181917F010E9463010F5F58
:100920001F4FECCF8BE39DE00197F1F760E08C81E6
:100930000E942F0160E08E810E942F018D818F3FE8
:1009400019F060E00E942F016F8564FD1DC063E017
:10095000CE010E94CC030BE416E4C8010197F1F725
:1009600063E0CE010E94CC03C8010197F1F763E078
:10097000CE010E94CC0383E592E00197F1F762E09B
:10098000CE010E94CC0316C06062CE010E945204C8
:100990008BE496E40197F1F76F856062CE010E94C7
:1009A000520483E592E00197F1F76F856062CE0112
:1009B0000E9452046F856062CE010E94520484E05E
:1009C000888B6CE0CE010E94520461E0CE010E944F
:1009D00052048BE39FE10197F1F782E0898B66E097
:1009E000CE01DF91CF911F910F91FF90EF900C946A
:1009F0005204643008F063E090913202691710F0FD
:100A00006FEF690FE62FF0E0E15EFD4F9489682FEC
:100A1000690F60688FE192E00C945204089580E0C1
:100A200090E00895009769F0FC0101900020E9F73B
:100A30003197AF01481B590BBC018FE192E00C9438
:100A4000AF0080E090E0089561E080E00E94F9044A
:100A50008EE291E00E9412056CED75E080E090E07E
:100A60000E94C80161E080E00E94F90483E491E003
:100A70000E94120561E080E00E94F9041092AF012B
:100A800061E08BE00E942F0160E08AE00E942F016C
:100A900060E08CE00C942F01CF930E946C02C82F71
:100AA00060E081E00E94F90483E691E00E94120573
:100AB00061E080E00E94F90460912F02862F82603D
:100AC00080932F026A608FE192E00E945204CC234F
:100AD000A9F18091AF018430E4F4CD33F1F0C33457
:100AE00051F1E0911F02F09120020190F081E02D80
:100AF0006AE28FE192E009958091AF01E82F082E1C
:100B0000000CFF0BEE55FE4FC0838F5F8093AF014B
:100B100002C0C33481F0CD3389F461E080E00E94EB
:100B2000F9048AE791E00E9412056CED75E080E01F
:100B300090E00E94C801CF910C942405CF910895B4
:100B40000E94F2061F920F920FB60F9211242F935C
:100B50003F938F939F93AF93BF938091A701909101
:100B6000A801A091A901B091AA013091A60123E0AA
:100B7000230F2D3720F40196A11DB11D05C026E8D5
:100B8000230F0296A11DB11D2093A6018093A701FA
:100B90009093A801A093A901B093AA018091AB0101
:100BA0009091AC01A091AD01B091AE010196A11D53
:100BB000B11D8093AB019093AC01A093AD01B093B4
:100BC000AE01BF91AF919F918F913F912F910F9067
:100BD0000FBE0F901F901895789484B5826084BDE5
:100BE00084B5816084BD85B5826085BD85B5816031
:100BF00085BD80916E00816080936E0010928100AF
:100C00008091810082608093810080918100816069
:100C1000809381008091800081608093800080912A
:100C2000B10084608093B1008091B00081608093B6
:100C3000B00080917A00846080937A0080917A007D
:100C4000826080937A0080917A00816080937A003C
:100C500080917A00806880937A001092C10061E0F0
:100C60008AE00E94630161E08BE00E94630161E021
:100C70008CE00E94630144E064E18FE192E00E9415
:100C800055048BE891E00E94120561E080E00E942B
:100C9000F90460912F02862F826080932F026A6090
:100CA0008FE192E00E94520461E08BE00E942F01EC
:100CB00060E08AE00E942F0160E08CE00E942F013A
:100CC000C0E0D0E00E946C028F3219F40E944C0503
:100CD00002C08334D9F32097A9F30E940000F2CF19
:100CE000109222021092210286E291E0909320025B
:100CF00080931F0289E0809323028FEF8093240268
:100D000088E08093250287E08093260286E0809326
:100D1000270285E08093280284E0809329021092C4
:100D20002A0210922B0210922C0210922D02109285
:100D30002E0241E060E18FE192E00E9455041092A2
:100D4000B2011092B6011092B5011092B7018CE178
:100D500091E09093B1018093B00180E090E0FC01BC
:100D6000E055FE4F148E10A2178E11A206968C33FA
:100D70009105A9F784E091E0909313028093120209
:100D800080E091E0909315028093140284E08093B8
:100D900016028093170288E091E0909311028093ED
:100DA00010028AE090E0909319028093180284EF79
:100DB00091E090931B0280931A0210921E021092EF
:100DC0001D0210920C0210920D0210920E0210924F
:100DD0000F0210921C020895EE0FFF1F0590F49170
:100DE000E02D099481E090E0F8940C94F706F894D3
:020DF000FFCF33
:100DF20011100F0E030213123738392F3435362AE9
:100E02003132332D43303D2B000000009F015F0142
:100E12002C01000000004C04AF000F050E05446FCA
:100E22006F72204C6F636B6564C2A0C2A0C2A0C285
:100E3200A02000C2A0C2A0C2A0C2A0C2A0C2A0C2E2
:100E4200A0C2A0C2A0C2A0C2A0C2A0C2A0C2A0C290
:100E5200A02000696E74726F64757A636120636F9B
:100E62006E7472617365C3B16100496E76616C69BB
:100E7200642050617373776F72640072656769737F
:100E820074726F20636F6E7472617365C3B1613F78
:020E920000005E
:00000001FF
